{
  "_format": "hh-sol-artifact-1",
  "contractName": "Marketplace",
  "sourceName": "contracts/Marketplace.sol",
  "abi": [
    {
      "inputs": [
        {
          "internalType": "uint256",
          "name": "_feePercent",
          "type": "uint256"
        }
      ],
      "stateMutability": "nonpayable",
      "type": "constructor"
    },
    {
      "anonymous": false,
      "inputs": [
        {
          "indexed": true,
          "internalType": "address",
          "name": "owner",
          "type": "address"
        },
        {
          "indexed": true,
          "internalType": "address",
          "name": "approved",
          "type": "address"
        },
        {
          "indexed": true,
          "internalType": "uint256",
          "name": "tokenId",
          "type": "uint256"
        }
      ],
      "name": "Approval",
      "type": "event"
    },
    {
      "anonymous": false,
      "inputs": [
        {
          "indexed": true,
          "internalType": "address",
          "name": "owner",
          "type": "address"
        },
        {
          "indexed": true,
          "internalType": "address",
          "name": "operator",
          "type": "address"
        },
        {
          "indexed": false,
          "internalType": "bool",
          "name": "approved",
          "type": "bool"
        }
      ],
      "name": "ApprovalForAll",
      "type": "event"
    },
    {
      "anonymous": false,
      "inputs": [
        {
          "indexed": false,
          "internalType": "uint256",
          "name": "itemId",
          "type": "uint256"
        },
        {
          "indexed": false,
          "internalType": "bool",
          "name": "sold",
          "type": "bool"
        },
        {
          "indexed": false,
          "internalType": "uint256",
          "name": "price",
          "type": "uint256"
        },
        {
          "indexed": true,
          "internalType": "address",
          "name": "seller",
          "type": "address"
        },
        {
          "indexed": true,
          "internalType": "address",
          "name": "buyer",
          "type": "address"
        }
      ],
      "name": "Bought",
      "type": "event"
    },
    {
      "anonymous": false,
      "inputs": [
        {
          "indexed": false,
          "internalType": "uint256",
          "name": "itemId",
          "type": "uint256"
        },
        {
          "indexed": false,
          "internalType": "bool",
          "name": "sold",
          "type": "bool"
        },
        {
          "indexed": false,
          "internalType": "uint256",
          "name": "price",
          "type": "uint256"
        },
        {
          "indexed": true,
          "internalType": "address",
          "name": "seller",
          "type": "address"
        },
        {
          "indexed": true,
          "internalType": "address",
          "name": "owner",
          "type": "address"
        }
      ],
      "name": "Offered",
      "type": "event"
    },
    {
      "anonymous": false,
      "inputs": [
        {
          "indexed": true,
          "internalType": "address",
          "name": "from",
          "type": "address"
        },
        {
          "indexed": true,
          "internalType": "address",
          "name": "to",
          "type": "address"
        },
        {
          "indexed": true,
          "internalType": "uint256",
          "name": "tokenId",
          "type": "uint256"
        }
      ],
      "name": "Transfer",
      "type": "event"
    },
    {
      "inputs": [
        {
          "internalType": "address",
          "name": "to",
          "type": "address"
        },
        {
          "internalType": "uint256",
          "name": "tokenId",
          "type": "uint256"
        }
      ],
      "name": "approve",
      "outputs": [],
      "stateMutability": "nonpayable",
      "type": "function"
    },
    {
      "inputs": [
        {
          "internalType": "address",
          "name": "owner",
          "type": "address"
        }
      ],
      "name": "balanceOf",
      "outputs": [
        {
          "internalType": "uint256",
          "name": "",
          "type": "uint256"
        }
      ],
      "stateMutability": "view",
      "type": "function"
    },
    {
      "inputs": [
        {
          "internalType": "string",
          "name": "tokenURI",
          "type": "string"
        },
        {
          "internalType": "uint256",
          "name": "price",
          "type": "uint256"
        }
      ],
      "name": "createNFT",
      "outputs": [],
      "stateMutability": "payable",
      "type": "function"
    },
    {
      "inputs": [],
      "name": "feeAccount",
      "outputs": [
        {
          "internalType": "address payable",
          "name": "",
          "type": "address"
        }
      ],
      "stateMutability": "view",
      "type": "function"
    },
    {
      "inputs": [],
      "name": "feePercent",
      "outputs": [
        {
          "internalType": "uint256",
          "name": "",
          "type": "uint256"
        }
      ],
      "stateMutability": "view",
      "type": "function"
    },
    {
      "inputs": [
        {
          "internalType": "uint256",
          "name": "tokenId",
          "type": "uint256"
        }
      ],
      "name": "getApproved",
      "outputs": [
        {
          "internalType": "address",
          "name": "",
          "type": "address"
        }
      ],
      "stateMutability": "view",
      "type": "function"
    },
    {
      "inputs": [
        {
          "internalType": "uint256",
          "name": "_itemId",
          "type": "uint256"
        }
      ],
      "name": "getTotalPrice",
      "outputs": [
        {
          "internalType": "uint256",
          "name": "",
          "type": "uint256"
        }
      ],
      "stateMutability": "view",
      "type": "function"
    },
    {
      "inputs": [
        {
          "internalType": "address",
          "name": "owner",
          "type": "address"
        },
        {
          "internalType": "address",
          "name": "operator",
          "type": "address"
        }
      ],
      "name": "isApprovedForAll",
      "outputs": [
        {
          "internalType": "bool",
          "name": "",
          "type": "bool"
        }
      ],
      "stateMutability": "view",
      "type": "function"
    },
    {
      "inputs": [],
      "name": "itemCount",
      "outputs": [
        {
          "internalType": "uint256",
          "name": "_value",
          "type": "uint256"
        }
      ],
      "stateMutability": "view",
      "type": "function"
    },
    {
      "inputs": [
        {
          "internalType": "uint256",
          "name": "",
          "type": "uint256"
        }
      ],
      "name": "items",
      "outputs": [
        {
          "internalType": "uint256",
          "name": "tokenId",
          "type": "uint256"
        },
        {
          "internalType": "uint256",
          "name": "price",
          "type": "uint256"
        },
        {
          "internalType": "address payable",
          "name": "seller",
          "type": "address"
        },
        {
          "internalType": "address payable",
          "name": "owner",
          "type": "address"
        },
        {
          "internalType": "bool",
          "name": "sold",
          "type": "bool"
        }
      ],
      "stateMutability": "view",
      "type": "function"
    },
    {
      "inputs": [],
      "name": "name",
      "outputs": [
        {
          "internalType": "string",
          "name": "",
          "type": "string"
        }
      ],
      "stateMutability": "view",
      "type": "function"
    },
    {
      "inputs": [
        {
          "internalType": "uint256",
          "name": "tokenId",
          "type": "uint256"
        }
      ],
      "name": "ownerOf",
      "outputs": [
        {
          "internalType": "address",
          "name": "",
          "type": "address"
        }
      ],
      "stateMutability": "view",
      "type": "function"
    },
    {
      "inputs": [
        {
          "internalType": "uint256",
          "name": "_itemId",
          "type": "uint256"
        }
      ],
      "name": "purchaseItem",
      "outputs": [],
      "stateMutability": "payable",
      "type": "function"
    },
    {
      "inputs": [
        {
          "internalType": "address",
          "name": "from",
          "type": "address"
        },
        {
          "internalType": "address",
          "name": "to",
          "type": "address"
        },
        {
          "internalType": "uint256",
          "name": "tokenId",
          "type": "uint256"
        }
      ],
      "name": "safeTransferFrom",
      "outputs": [],
      "stateMutability": "nonpayable",
      "type": "function"
    },
    {
      "inputs": [
        {
          "internalType": "address",
          "name": "from",
          "type": "address"
        },
        {
          "internalType": "address",
          "name": "to",
          "type": "address"
        },
        {
          "internalType": "uint256",
          "name": "tokenId",
          "type": "uint256"
        },
        {
          "internalType": "bytes",
          "name": "_data",
          "type": "bytes"
        }
      ],
      "name": "safeTransferFrom",
      "outputs": [],
      "stateMutability": "nonpayable",
      "type": "function"
    },
    {
      "inputs": [
        {
          "internalType": "address",
          "name": "operator",
          "type": "address"
        },
        {
          "internalType": "bool",
          "name": "approved",
          "type": "bool"
        }
      ],
      "name": "setApprovalForAll",
      "outputs": [],
      "stateMutability": "nonpayable",
      "type": "function"
    },
    {
      "inputs": [
        {
          "internalType": "bytes4",
          "name": "interfaceId",
          "type": "bytes4"
        }
      ],
      "name": "supportsInterface",
      "outputs": [
        {
          "internalType": "bool",
          "name": "",
          "type": "bool"
        }
      ],
      "stateMutability": "view",
      "type": "function"
    },
    {
      "inputs": [],
      "name": "symbol",
      "outputs": [
        {
          "internalType": "string",
          "name": "",
          "type": "string"
        }
      ],
      "stateMutability": "view",
      "type": "function"
    },
    {
      "inputs": [
        {
          "internalType": "uint256",
          "name": "tokenId",
          "type": "uint256"
        }
      ],
      "name": "tokenURI",
      "outputs": [
        {
          "internalType": "string",
          "name": "",
          "type": "string"
        }
      ],
      "stateMutability": "view",
      "type": "function"
    },
    {
      "inputs": [
        {
          "internalType": "address",
          "name": "from",
          "type": "address"
        },
        {
          "internalType": "address",
          "name": "to",
          "type": "address"
        },
        {
          "internalType": "uint256",
          "name": "tokenId",
          "type": "uint256"
        }
      ],
      "name": "transferFrom",
      "outputs": [],
      "stateMutability": "nonpayable",
      "type": "function"
    }
  ],
  "bytecode": "0x60c06040523480156200001157600080fd5b506040516200393b3803806200393b8339818101604052810190620000379190620001e4565b6040518060400160405280600c81526020017f5265616c4c696665204e465400000000000000000000000000000000000000008152506040518060400160405280600481526020017f5265616c000000000000000000000000000000000000000000000000000000008152508160009080519060200190620000bb9291906200011d565b508060019080519060200190620000d49291906200011d565b5050503373ffffffffffffffffffffffffffffffffffffffff1660808173ffffffffffffffffffffffffffffffffffffffff1660601b815250508060a081815250505062000299565b8280546200012b906200021a565b90600052602060002090601f0160209004810192826200014f57600085556200019b565b82601f106200016a57805160ff19168380011785556200019b565b828001600101855582156200019b579182015b828111156200019a5782518255916020019190600101906200017d565b5b509050620001aa9190620001ae565b5090565b5b80821115620001c9576000816000905550600101620001af565b5090565b600081519050620001de816200027f565b92915050565b600060208284031215620001f757600080fd5b60006200020784828501620001cd565b91505092915050565b6000819050919050565b600060028204905060018216806200023357607f821691505b602082108114156200024a576200024962000250565b5b50919050565b7f4e487b7100000000000000000000000000000000000000000000000000000000600052602260045260246000fd5b6200028a8162000210565b81146200029657600080fd5b50565b60805160601c60a05161366b620002d060003960008181610a540152610d5b01526000818161096c0152610f3f015261366b6000f3fe60806040526004361061011f5760003560e01c806370a08231116100a0578063bfb231d211610064578063bfb231d2146103d8578063c87b56dd14610419578063ca7dd37514610456578063d38ea5bf14610493578063e985e9c5146104af5761011f565b806370a08231146102f35780637fd6f15c1461033057806395d89b411461035b578063a22cb46514610386578063b88d4fde146103af5761011f565b806326829155116100e7578063268291551461021b57806342842e0e146102375780636352211e1461026057806365e17c9d1461029d5780636bfb0d01146102c85761011f565b806301ffc9a71461012457806306fdde0314610161578063081812fc1461018c578063095ea7b3146101c957806323b872dd146101f2575b600080fd5b34801561013057600080fd5b5061014b600480360381019061014691906123ce565b6104ec565b60405161015891906128de565b60405180910390f35b34801561016d57600080fd5b506101766105ce565b60405161018391906128f9565b60405180910390f35b34801561019857600080fd5b506101b360048036038101906101ae9190612474565b610660565b6040516101c0919061285c565b60405180910390f35b3480156101d557600080fd5b506101f060048036038101906101eb9190612392565b6106e5565b005b3480156101fe57600080fd5b506102196004803603810190610214919061228c565b6107fd565b005b61023560048036038101906102309190612420565b61085d565b005b34801561024357600080fd5b5061025e6004803603810190610259919061228c565b610898565b005b34801561026c57600080fd5b5061028760048036038101906102829190612474565b6108b8565b604051610294919061285c565b60405180910390f35b3480156102a957600080fd5b506102b261096a565b6040516102bf9190612877565b60405180910390f35b3480156102d457600080fd5b506102dd61098e565b6040516102ea9190612b9b565b60405180910390f35b3480156102ff57600080fd5b5061031a60048036038101906103159190612227565b61099a565b6040516103279190612b9b565b60405180910390f35b34801561033c57600080fd5b50610345610a52565b6040516103529190612b9b565b60405180910390f35b34801561036757600080fd5b50610370610a76565b60405161037d91906128f9565b60405180910390f35b34801561039257600080fd5b506103ad60048036038101906103a89190612356565b610b08565b005b3480156103bb57600080fd5b506103d660048036038101906103d191906122db565b610b1e565b005b3480156103e457600080fd5b506103ff60048036038101906103fa9190612474565b610b80565b604051610410959493929190612bed565b60405180910390f35b34801561042557600080fd5b50610440600480360381019061043b9190612474565b610c03565b60405161044d91906128f9565b60405180910390f35b34801561046257600080fd5b5061047d60048036038101906104789190612474565b610d55565b60405161048a9190612b9b565b60405180910390f35b6104ad60048036038101906104a89190612474565b610db8565b005b3480156104bb57600080fd5b506104d660048036038101906104d19190612250565b611087565b6040516104e391906128de565b60405180910390f35b60007f80ac58cd000000000000000000000000000000000000000000000000000000007bffffffffffffffffffffffffffffffffffffffffffffffffffffffff1916827bffffffffffffffffffffffffffffffffffffffffffffffffffffffff191614806105b757507f5b5e139f000000000000000000000000000000000000000000000000000000007bffffffffffffffffffffffffffffffffffffffffffffffffffffffff1916827bffffffffffffffffffffffffffffffffffffffffffffffffffffffff1916145b806105c757506105c68261111b565b5b9050919050565b6060600080546105dd90612ee7565b80601f016020809104026020016040519081016040528092919081815260200182805461060990612ee7565b80156106565780601f1061062b57610100808354040283529160200191610656565b820191906000526020600020905b81548152906001019060200180831161063957829003601f168201915b5050505050905090565b600061066b82611185565b6106aa576040517f08c379a00000000000000000000000000000000000000000000000000000000081526004016106a190612b1b565b60405180910390fd5b6004600083815260200190815260200160002060009054906101000a900473ffffffffffffffffffffffffffffffffffffffff169050919050565b60006106f0826108b8565b90508073ffffffffffffffffffffffffffffffffffffffff168373ffffffffffffffffffffffffffffffffffffffff161415610761576040517f08c379a000000000000000000000000000000000000000000000000000000000815260040161075890612b5b565b60405180910390fd5b8073ffffffffffffffffffffffffffffffffffffffff166107806111f1565b73ffffffffffffffffffffffffffffffffffffffff1614806107af57506107ae816107a96111f1565b611087565b5b6107ee576040517f08c379a00000000000000000000000000000000000000000000000000000000081526004016107e590612a5b565b60405180910390fd5b6107f883836111f9565b505050565b61080e6108086111f1565b826112b2565b61084d576040517f08c379a000000000000000000000000000000000000000000000000000000000815260040161084490612b7b565b60405180910390fd5b610858838383611390565b505050565b61086760076115f7565b6000610873600761160d565b905061087f338261161b565b61088981846117f5565b6108938183611869565b505050565b6108b383838360405180602001604052806000815250610b1e565b505050565b6000806002600084815260200190815260200160002060009054906101000a900473ffffffffffffffffffffffffffffffffffffffff169050600073ffffffffffffffffffffffffffffffffffffffff168173ffffffffffffffffffffffffffffffffffffffff161415610961576040517f08c379a000000000000000000000000000000000000000000000000000000000815260040161095890612a9b565b60405180910390fd5b80915050919050565b7f000000000000000000000000000000000000000000000000000000000000000081565b60078060000154905081565b60008073ffffffffffffffffffffffffffffffffffffffff168273ffffffffffffffffffffffffffffffffffffffff161415610a0b576040517f08c379a0000000000000000000000000000000000000000000000000000000008152600401610a0290612a7b565b60405180910390fd5b600360008373ffffffffffffffffffffffffffffffffffffffff1673ffffffffffffffffffffffffffffffffffffffff168152602001908152602001600020549050919050565b7f000000000000000000000000000000000000000000000000000000000000000081565b606060018054610a8590612ee7565b80601f0160208091040260200160405190810160405280929190818152602001828054610ab190612ee7565b8015610afe5780601f10610ad357610100808354040283529160200191610afe565b820191906000526020600020905b815481529060010190602001808311610ae157829003601f168201915b5050505050905090565b610b1a610b136111f1565b8383611a53565b5050565b610b2f610b296111f1565b836112b2565b610b6e576040517f08c379a0000000000000000000000000000000000000000000000000000000008152600401610b6590612b7b565b60405180910390fd5b610b7a84848484611bc0565b50505050565b60086020528060005260406000206000915090508060000154908060010154908060020160009054906101000a900473ffffffffffffffffffffffffffffffffffffffff16908060030160009054906101000a900473ffffffffffffffffffffffffffffffffffffffff16908060030160149054906101000a900460ff16905085565b6060610c0e82611185565b610c4d576040517f08c379a0000000000000000000000000000000000000000000000000000000008152600401610c4490612afb565b60405180910390fd5b6000600660008481526020019081526020016000208054610c6d90612ee7565b80601f0160208091040260200160405190810160405280929190818152602001828054610c9990612ee7565b8015610ce65780601f10610cbb57610100808354040283529160200191610ce6565b820191906000526020600020905b815481529060010190602001808311610cc957829003601f168201915b505050505090506000610cf7611c1c565b9050600081511415610d0d578192505050610d50565b600082511115610d42578082604051602001610d2a929190612838565b60405160208183030381529060405292505050610d50565b610d4b84611c33565b925050505b919050565b600060647f00000000000000000000000000000000000000000000000000000000000000006064610d869190612d0a565b6008600085815260200190815260200160002060010154610da79190612d91565b610db19190612d60565b9050919050565b6000610dc382610d55565b90506000610dd1600761160d565b90506000600860008581526020019081526020016000209050600084118015610dfa5750818411155b610e39576040517f08c379a0000000000000000000000000000000000000000000000000000000008152600401610e3090612a3b565b60405180910390fd5b82341015610e7c576040517f08c379a0000000000000000000000000000000000000000000000000000000008152600401610e73906129bb565b60405180910390fd5b8060030160149054906101000a900460ff1615610ece576040517f08c379a0000000000000000000000000000000000000000000000000000000008152600401610ec59061291b565b60405180910390fd5b8060020160009054906101000a900473ffffffffffffffffffffffffffffffffffffffff1673ffffffffffffffffffffffffffffffffffffffff166108fc82600101549081150290604051600060405180830381858888f19350505050158015610f3c573d6000803e3d6000fd5b507f000000000000000000000000000000000000000000000000000000000000000073ffffffffffffffffffffffffffffffffffffffff166108fc826001015485610f879190612deb565b9081150290604051600060405180830381858888f19350505050158015610fb2573d6000803e3d6000fd5b5060018160030160146101000a81548160ff021916908315150217905550610fdf30338360000154611390565b3373ffffffffffffffffffffffffffffffffffffffff168160020160009054906101000a900473ffffffffffffffffffffffffffffffffffffffff1673ffffffffffffffffffffffffffffffffffffffff167fbd984748b13fbe6267191ef05cc2ac413f7983538f15deef0fee37c95fcde7e1868460030160149054906101000a900460ff16856001015460405161107993929190612bb6565b60405180910390a350505050565b6000600560008473ffffffffffffffffffffffffffffffffffffffff1673ffffffffffffffffffffffffffffffffffffffff16815260200190815260200160002060008373ffffffffffffffffffffffffffffffffffffffff1673ffffffffffffffffffffffffffffffffffffffff16815260200190815260200160002060009054906101000a900460ff16905092915050565b60007f01ffc9a7000000000000000000000000000000000000000000000000000000007bffffffffffffffffffffffffffffffffffffffffffffffffffffffff1916827bffffffffffffffffffffffffffffffffffffffffffffffffffffffff1916149050919050565b60008073ffffffffffffffffffffffffffffffffffffffff166002600084815260200190815260200160002060009054906101000a900473ffffffffffffffffffffffffffffffffffffffff1673ffffffffffffffffffffffffffffffffffffffff1614159050919050565b600033905090565b816004600083815260200190815260200160002060006101000a81548173ffffffffffffffffffffffffffffffffffffffff021916908373ffffffffffffffffffffffffffffffffffffffff160217905550808273ffffffffffffffffffffffffffffffffffffffff1661126c836108b8565b73ffffffffffffffffffffffffffffffffffffffff167f8c5be1e5ebec7d5bd14f71427d1e84f3dd0314c0f7b2291e5b200ac8c7c3b92560405160405180910390a45050565b60006112bd82611185565b6112fc576040517f08c379a00000000000000000000000000000000000000000000000000000000081526004016112f390612a1b565b60405180910390fd5b6000611307836108b8565b90508073ffffffffffffffffffffffffffffffffffffffff168473ffffffffffffffffffffffffffffffffffffffff16148061134957506113488185611087565b5b8061138757508373ffffffffffffffffffffffffffffffffffffffff1661136f84610660565b73ffffffffffffffffffffffffffffffffffffffff16145b91505092915050565b8273ffffffffffffffffffffffffffffffffffffffff166113b0826108b8565b73ffffffffffffffffffffffffffffffffffffffff1614611406576040517f08c379a00000000000000000000000000000000000000000000000000000000081526004016113fd9061297b565b60405180910390fd5b600073ffffffffffffffffffffffffffffffffffffffff168273ffffffffffffffffffffffffffffffffffffffff161415611476576040517f08c379a000000000000000000000000000000000000000000000000000000000815260040161146d906129db565b60405180910390fd5b611481838383611cda565b61148c6000826111f9565b6001600360008573ffffffffffffffffffffffffffffffffffffffff1673ffffffffffffffffffffffffffffffffffffffff16815260200190815260200160002060008282546114dc9190612deb565b925050819055506001600360008473ffffffffffffffffffffffffffffffffffffffff1673ffffffffffffffffffffffffffffffffffffffff16815260200190815260200160002060008282546115339190612d0a565b92505081905550816002600083815260200190815260200160002060006101000a81548173ffffffffffffffffffffffffffffffffffffffff021916908373ffffffffffffffffffffffffffffffffffffffff160217905550808273ffffffffffffffffffffffffffffffffffffffff168473ffffffffffffffffffffffffffffffffffffffff167fddf252ad1be2c89b69c2b068fc378daa952ba7f163c4a11628f55a4df523b3ef60405160405180910390a46115f2838383611cdf565b505050565b6001816000016000828254019250508190555050565b600081600001549050919050565b600073ffffffffffffffffffffffffffffffffffffffff168273ffffffffffffffffffffffffffffffffffffffff16141561168b576040517f08c379a000000000000000000000000000000000000000000000000000000000815260040161168290612adb565b60405180910390fd5b61169481611185565b156116d4576040517f08c379a00000000000000000000000000000000000000000000000000000000081526004016116cb9061299b565b60405180910390fd5b6116e060008383611cda565b6001600360008473ffffffffffffffffffffffffffffffffffffffff1673ffffffffffffffffffffffffffffffffffffffff16815260200190815260200160002060008282546117309190612d0a565b92505081905550816002600083815260200190815260200160002060006101000a81548173ffffffffffffffffffffffffffffffffffffffff021916908373ffffffffffffffffffffffffffffffffffffffff160217905550808273ffffffffffffffffffffffffffffffffffffffff16600073ffffffffffffffffffffffffffffffffffffffff167fddf252ad1be2c89b69c2b068fc378daa952ba7f163c4a11628f55a4df523b3ef60405160405180910390a46117f160008383611cdf565b5050565b6117fe82611185565b61183d576040517f08c379a000000000000000000000000000000000000000000000000000000000815260040161183490612abb565b60405180910390fd5b8060066000848152602001908152602001600020908051906020019061186492919061204b565b505050565b600081116118ac576040517f08c379a00000000000000000000000000000000000000000000000000000000081526004016118a39061293b565b60405180910390fd5b6118b7333084611390565b6040518060a001604052808381526020018281526020013373ffffffffffffffffffffffffffffffffffffffff1681526020013073ffffffffffffffffffffffffffffffffffffffff1681526020016000151581525060086000848152602001908152602001600020600082015181600001556020820151816001015560408201518160020160006101000a81548173ffffffffffffffffffffffffffffffffffffffff021916908373ffffffffffffffffffffffffffffffffffffffff16021790555060608201518160030160006101000a81548173ffffffffffffffffffffffffffffffffffffffff021916908373ffffffffffffffffffffffffffffffffffffffff16021790555060808201518160030160146101000a81548160ff0219169083151502179055509050503073ffffffffffffffffffffffffffffffffffffffff163373ffffffffffffffffffffffffffffffffffffffff167f9bd30698974acb5da151ec7f0787cb683b6d5c53bd7b092f2ff90ef260ed9de684600085604051611a4793929190612bb6565b60405180910390a35050565b8173ffffffffffffffffffffffffffffffffffffffff168373ffffffffffffffffffffffffffffffffffffffff161415611ac2576040517f08c379a0000000000000000000000000000000000000000000000000000000008152600401611ab9906129fb565b60405180910390fd5b80600560008573ffffffffffffffffffffffffffffffffffffffff1673ffffffffffffffffffffffffffffffffffffffff16815260200190815260200160002060008473ffffffffffffffffffffffffffffffffffffffff1673ffffffffffffffffffffffffffffffffffffffff16815260200190815260200160002060006101000a81548160ff0219169083151502179055508173ffffffffffffffffffffffffffffffffffffffff168373ffffffffffffffffffffffffffffffffffffffff167f17307eab39ab6107e8899845ad3d59bd9653f200f220920489ca2b5937696c3183604051611bb391906128de565b60405180910390a3505050565b611bcb848484611390565b611bd784848484611ce4565b611c16576040517f08c379a0000000000000000000000000000000000000000000000000000000008152600401611c0d9061295b565b60405180910390fd5b50505050565b606060405180602001604052806000815250905090565b6060611c3e82611185565b611c7d576040517f08c379a0000000000000000000000000000000000000000000000000000000008152600401611c7490612b3b565b60405180910390fd5b6000611c87611c1c565b90506000815111611ca75760405180602001604052806000815250611cd2565b80611cb184611e7b565b604051602001611cc2929190612838565b6040516020818303038152906040525b915050919050565b505050565b505050565b6000611d058473ffffffffffffffffffffffffffffffffffffffff16612028565b15611e6e578373ffffffffffffffffffffffffffffffffffffffff1663150b7a02611d2e6111f1565b8786866040518563ffffffff1660e01b8152600401611d509493929190612892565b602060405180830381600087803b158015611d6a57600080fd5b505af1925050508015611d9b57506040513d601f19601f82011682018060405250810190611d9891906123f7565b60015b611e1e573d8060008114611dcb576040519150601f19603f3d011682016040523d82523d6000602084013e611dd0565b606091505b50600081511415611e16576040517f08c379a0000000000000000000000000000000000000000000000000000000008152600401611e0d9061295b565b60405180910390fd5b805181602001fd5b63150b7a0260e01b7bffffffffffffffffffffffffffffffffffffffffffffffffffffffff1916817bffffffffffffffffffffffffffffffffffffffffffffffffffffffff191614915050611e73565b600190505b949350505050565b60606000821415611ec3576040518060400160405280600181526020017f30000000000000000000000000000000000000000000000000000000000000008152509050612023565b600082905060005b60008214611ef5578080611ede90612f4a565b915050600a82611eee9190612d60565b9150611ecb565b60008167ffffffffffffffff811115611f37577f4e487b7100000000000000000000000000000000000000000000000000000000600052604160045260246000fd5b6040519080825280601f01601f191660200182016040528015611f695781602001600182028036833780820191505090505b5090505b6000851461201c57600182611f829190612deb565b9150600a85611f919190612f93565b6030611f9d9190612d0a565b60f81b818381518110611fd9577f4e487b7100000000000000000000000000000000000000000000000000000000600052603260045260246000fd5b60200101907effffffffffffffffffffffffffffffffffffffffffffffffffffffffffffff1916908160001a905350600a856120159190612d60565b9450611f6d565b8093505050505b919050565b6000808273ffffffffffffffffffffffffffffffffffffffff163b119050919050565b82805461205790612ee7565b90600052602060002090601f01602090048101928261207957600085556120c0565b82601f1061209257805160ff19168380011785556120c0565b828001600101855582156120c0579182015b828111156120bf5782518255916020019190600101906120a4565b5b5090506120cd91906120d1565b5090565b5b808211156120ea5760008160009055506001016120d2565b5090565b60006121016120fc84612c65565b612c40565b90508281526020810184848401111561211957600080fd5b612124848285612ea5565b509392505050565b600061213f61213a84612c96565b612c40565b90508281526020810184848401111561215757600080fd5b612162848285612ea5565b509392505050565b600081359050612179816135d9565b92915050565b60008135905061218e816135f0565b92915050565b6000813590506121a381613607565b92915050565b6000815190506121b881613607565b92915050565b600082601f8301126121cf57600080fd5b81356121df8482602086016120ee565b91505092915050565b600082601f8301126121f957600080fd5b813561220984826020860161212c565b91505092915050565b6000813590506122218161361e565b92915050565b60006020828403121561223957600080fd5b60006122478482850161216a565b91505092915050565b6000806040838503121561226357600080fd5b60006122718582860161216a565b92505060206122828582860161216a565b9150509250929050565b6000806000606084860312156122a157600080fd5b60006122af8682870161216a565b93505060206122c08682870161216a565b92505060406122d186828701612212565b9150509250925092565b600080600080608085870312156122f157600080fd5b60006122ff8782880161216a565b94505060206123108782880161216a565b935050604061232187828801612212565b925050606085013567ffffffffffffffff81111561233e57600080fd5b61234a878288016121be565b91505092959194509250565b6000806040838503121561236957600080fd5b60006123778582860161216a565b92505060206123888582860161217f565b9150509250929050565b600080604083850312156123a557600080fd5b60006123b38582860161216a565b92505060206123c485828601612212565b9150509250929050565b6000602082840312156123e057600080fd5b60006123ee84828501612194565b91505092915050565b60006020828403121561240957600080fd5b6000612417848285016121a9565b91505092915050565b6000806040838503121561243357600080fd5b600083013567ffffffffffffffff81111561244d57600080fd5b612459858286016121e8565b925050602061246a85828601612212565b9150509250929050565b60006020828403121561248657600080fd5b600061249484828501612212565b91505092915050565b6124a681612e31565b82525050565b6124b581612e1f565b82525050565b6124c481612e43565b82525050565b60006124d582612cc7565b6124df8185612cdd565b93506124ef818560208601612eb4565b6124f881613080565b840191505092915050565b600061250e82612cd2565b6125188185612cee565b9350612528818560208601612eb4565b61253181613080565b840191505092915050565b600061254782612cd2565b6125518185612cff565b9350612561818560208601612eb4565b80840191505092915050565b600061257a601183612cee565b915061258582613091565b602082019050919050565b600061259d601f83612cee565b91506125a8826130ba565b602082019050919050565b60006125c0603283612cee565b91506125cb826130e3565b604082019050919050565b60006125e3602583612cee565b91506125ee82613132565b604082019050919050565b6000612606601c83612cee565b915061261182613181565b602082019050919050565b6000612629603383612cee565b9150612634826131aa565b604082019050919050565b600061264c602483612cee565b9150612657826131f9565b604082019050919050565b600061266f601983612cee565b915061267a82613248565b602082019050919050565b6000612692602c83612cee565b915061269d82613271565b604082019050919050565b60006126b5601283612cee565b91506126c0826132c0565b602082019050919050565b60006126d8603883612cee565b91506126e3826132e9565b604082019050919050565b60006126fb602a83612cee565b915061270682613338565b604082019050919050565b600061271e602983612cee565b915061272982613387565b604082019050919050565b6000612741602e83612cee565b915061274c826133d6565b604082019050919050565b6000612764602083612cee565b915061276f82613425565b602082019050919050565b6000612787603183612cee565b91506127928261344e565b604082019050919050565b60006127aa602c83612cee565b91506127b58261349d565b604082019050919050565b60006127cd602f83612cee565b91506127d8826134ec565b604082019050919050565b60006127f0602183612cee565b91506127fb8261353b565b604082019050919050565b6000612813603183612cee565b915061281e8261358a565b604082019050919050565b61283281612e9b565b82525050565b6000612844828561253c565b9150612850828461253c565b91508190509392505050565b600060208201905061287160008301846124ac565b92915050565b600060208201905061288c600083018461249d565b92915050565b60006080820190506128a760008301876124ac565b6128b460208301866124ac565b6128c16040830185612829565b81810360608301526128d381846124ca565b905095945050505050565b60006020820190506128f360008301846124bb565b92915050565b600060208201905081810360008301526129138184612503565b905092915050565b600060208201905081810360008301526129348161256d565b9050919050565b6000602082019050818103600083015261295481612590565b9050919050565b60006020820190508181036000830152612974816125b3565b9050919050565b60006020820190508181036000830152612994816125d6565b9050919050565b600060208201905081810360008301526129b4816125f9565b9050919050565b600060208201905081810360008301526129d48161261c565b9050919050565b600060208201905081810360008301526129f48161263f565b9050919050565b60006020820190508181036000830152612a1481612662565b9050919050565b60006020820190508181036000830152612a3481612685565b9050919050565b60006020820190508181036000830152612a54816126a8565b9050919050565b60006020820190508181036000830152612a74816126cb565b9050919050565b60006020820190508181036000830152612a94816126ee565b9050919050565b60006020820190508181036000830152612ab481612711565b9050919050565b60006020820190508181036000830152612ad481612734565b9050919050565b60006020820190508181036000830152612af481612757565b9050919050565b60006020820190508181036000830152612b148161277a565b9050919050565b60006020820190508181036000830152612b348161279d565b9050919050565b60006020820190508181036000830152612b54816127c0565b9050919050565b60006020820190508181036000830152612b74816127e3565b9050919050565b60006020820190508181036000830152612b9481612806565b9050919050565b6000602082019050612bb06000830184612829565b92915050565b6000606082019050612bcb6000830186612829565b612bd860208301856124bb565b612be56040830184612829565b949350505050565b600060a082019050612c026000830188612829565b612c0f6020830187612829565b612c1c604083018661249d565b612c29606083018561249d565b612c3660808301846124bb565b9695505050505050565b6000612c4a612c5b565b9050612c568282612f19565b919050565b6000604051905090565b600067ffffffffffffffff821115612c8057612c7f613051565b5b612c8982613080565b9050602081019050919050565b600067ffffffffffffffff821115612cb157612cb0613051565b5b612cba82613080565b9050602081019050919050565b600081519050919050565b600081519050919050565b600082825260208201905092915050565b600082825260208201905092915050565b600081905092915050565b6000612d1582612e9b565b9150612d2083612e9b565b9250827fffffffffffffffffffffffffffffffffffffffffffffffffffffffffffffffff03821115612d5557612d54612fc4565b5b828201905092915050565b6000612d6b82612e9b565b9150612d7683612e9b565b925082612d8657612d85612ff3565b5b828204905092915050565b6000612d9c82612e9b565b9150612da783612e9b565b9250817fffffffffffffffffffffffffffffffffffffffffffffffffffffffffffffffff0483118215151615612de057612ddf612fc4565b5b828202905092915050565b6000612df682612e9b565b9150612e0183612e9b565b925082821015612e1457612e13612fc4565b5b828203905092915050565b6000612e2a82612e7b565b9050919050565b6000612e3c82612e7b565b9050919050565b60008115159050919050565b60007fffffffff0000000000000000000000000000000000000000000000000000000082169050919050565b600073ffffffffffffffffffffffffffffffffffffffff82169050919050565b6000819050919050565b82818337600083830152505050565b60005b83811015612ed2578082015181840152602081019050612eb7565b83811115612ee1576000848401525b50505050565b60006002820490506001821680612eff57607f821691505b60208210811415612f1357612f12613022565b5b50919050565b612f2282613080565b810181811067ffffffffffffffff82111715612f4157612f40613051565b5b80604052505050565b6000612f5582612e9b565b91507fffffffffffffffffffffffffffffffffffffffffffffffffffffffffffffffff821415612f8857612f87612fc4565b5b600182019050919050565b6000612f9e82612e9b565b9150612fa983612e9b565b925082612fb957612fb8612ff3565b5b828206905092915050565b7f4e487b7100000000000000000000000000000000000000000000000000000000600052601160045260246000fd5b7f4e487b7100000000000000000000000000000000000000000000000000000000600052601260045260246000fd5b7f4e487b7100000000000000000000000000000000000000000000000000000000600052602260045260246000fd5b7f4e487b7100000000000000000000000000000000000000000000000000000000600052604160045260246000fd5b6000601f19601f8301169050919050565b7f6974656d20616c726561647920736f6c64000000000000000000000000000000600082015250565b7f5072696365206d7573742062652067726561746572207468616e207a65726f00600082015250565b7f4552433732313a207472616e7366657220746f206e6f6e20455243373231526560008201527f63656976657220696d706c656d656e7465720000000000000000000000000000602082015250565b7f4552433732313a207472616e736665722066726f6d20696e636f72726563742060008201527f6f776e6572000000000000000000000000000000000000000000000000000000602082015250565b7f4552433732313a20746f6b656e20616c7265616479206d696e74656400000000600082015250565b7f6e6f7420656e6f75676820657468657220746f20636f766572206974656d207060008201527f7269636520616e64206d61726b65742066656500000000000000000000000000602082015250565b7f4552433732313a207472616e7366657220746f20746865207a65726f2061646460008201527f7265737300000000000000000000000000000000000000000000000000000000602082015250565b7f4552433732313a20617070726f766520746f2063616c6c657200000000000000600082015250565b7f4552433732313a206f70657261746f7220717565727920666f72206e6f6e657860008201527f697374656e7420746f6b656e0000000000000000000000000000000000000000602082015250565b7f6974656d20646f65736e27742065786973740000000000000000000000000000600082015250565b7f4552433732313a20617070726f76652063616c6c6572206973206e6f74206f7760008201527f6e6572206e6f7220617070726f76656420666f7220616c6c0000000000000000602082015250565b7f4552433732313a2062616c616e636520717565727920666f7220746865207a6560008201527f726f206164647265737300000000000000000000000000000000000000000000602082015250565b7f4552433732313a206f776e657220717565727920666f72206e6f6e657869737460008201527f656e7420746f6b656e0000000000000000000000000000000000000000000000602082015250565b7f45524337323155524953746f726167653a2055524920736574206f66206e6f6e60008201527f6578697374656e7420746f6b656e000000000000000000000000000000000000602082015250565b7f4552433732313a206d696e7420746f20746865207a65726f2061646472657373600082015250565b7f45524337323155524953746f726167653a2055524920717565727920666f722060008201527f6e6f6e6578697374656e7420746f6b656e000000000000000000000000000000602082015250565b7f4552433732313a20617070726f76656420717565727920666f72206e6f6e657860008201527f697374656e7420746f6b656e0000000000000000000000000000000000000000602082015250565b7f4552433732314d657461646174613a2055524920717565727920666f72206e6f60008201527f6e6578697374656e7420746f6b656e0000000000000000000000000000000000602082015250565b7f4552433732313a20617070726f76616c20746f2063757272656e74206f776e6560008201527f7200000000000000000000000000000000000000000000000000000000000000602082015250565b7f4552433732313a207472616e736665722063616c6c6572206973206e6f74206f60008201527f776e6572206e6f7220617070726f766564000000000000000000000000000000602082015250565b6135e281612e1f565b81146135ed57600080fd5b50565b6135f981612e43565b811461360457600080fd5b50565b61361081612e4f565b811461361b57600080fd5b50565b61362781612e9b565b811461363257600080fd5b5056fea26469706673582212206362fc6cc65a7a38bad1516d16a7f230eeafd4716742b87c6a31606f28a9688e64736f6c63430008040033",
  "linkReferences": {},
  "deployedLinkReferences": {}
}