{
  "_format": "hh-sol-artifact-1",
  "contractName": "Marketplace",
  "sourceName": "contracts/Marketplace.sol",
  "abi": [
    {
      "inputs": [
        {
          "internalType": "uint256",
          "name": "_feePercent",
          "type": "uint256"
        }
      ],
      "stateMutability": "nonpayable",
      "type": "constructor"
    },
    {
      "anonymous": false,
      "inputs": [
        {
          "indexed": true,
          "internalType": "address",
          "name": "owner",
          "type": "address"
        },
        {
          "indexed": true,
          "internalType": "address",
          "name": "approved",
          "type": "address"
        },
        {
          "indexed": true,
          "internalType": "uint256",
          "name": "tokenId",
          "type": "uint256"
        }
      ],
      "name": "Approval",
      "type": "event"
    },
    {
      "anonymous": false,
      "inputs": [
        {
          "indexed": true,
          "internalType": "address",
          "name": "owner",
          "type": "address"
        },
        {
          "indexed": true,
          "internalType": "address",
          "name": "operator",
          "type": "address"
        },
        {
          "indexed": false,
          "internalType": "bool",
          "name": "approved",
          "type": "bool"
        }
      ],
      "name": "ApprovalForAll",
      "type": "event"
    },
    {
      "anonymous": false,
      "inputs": [
        {
          "indexed": false,
          "internalType": "uint256",
          "name": "itemId",
          "type": "uint256"
        },
        {
          "indexed": false,
          "internalType": "bool",
          "name": "sold",
          "type": "bool"
        },
        {
          "indexed": false,
          "internalType": "uint256",
          "name": "price",
          "type": "uint256"
        },
        {
          "indexed": true,
          "internalType": "address",
          "name": "seller",
          "type": "address"
        },
        {
          "indexed": true,
          "internalType": "address",
          "name": "buyer",
          "type": "address"
        }
      ],
      "name": "Bought",
      "type": "event"
    },
    {
      "anonymous": false,
      "inputs": [
        {
          "indexed": false,
          "internalType": "uint256",
          "name": "itemId",
          "type": "uint256"
        },
        {
          "indexed": false,
          "internalType": "bool",
          "name": "sold",
          "type": "bool"
        },
        {
          "indexed": false,
          "internalType": "uint256",
          "name": "price",
          "type": "uint256"
        },
        {
          "indexed": true,
          "internalType": "address",
          "name": "seller",
          "type": "address"
        },
        {
          "indexed": true,
          "internalType": "address",
          "name": "owner",
          "type": "address"
        }
      ],
      "name": "Offered",
      "type": "event"
    },
    {
      "anonymous": false,
      "inputs": [
        {
          "indexed": true,
          "internalType": "address",
          "name": "from",
          "type": "address"
        },
        {
          "indexed": true,
          "internalType": "address",
          "name": "to",
          "type": "address"
        },
        {
          "indexed": true,
          "internalType": "uint256",
          "name": "tokenId",
          "type": "uint256"
        }
      ],
      "name": "Transfer",
      "type": "event"
    },
    {
      "inputs": [
        {
          "internalType": "address",
          "name": "to",
          "type": "address"
        },
        {
          "internalType": "uint256",
          "name": "tokenId",
          "type": "uint256"
        }
      ],
      "name": "approve",
      "outputs": [],
      "stateMutability": "nonpayable",
      "type": "function"
    },
    {
      "inputs": [
        {
          "internalType": "address",
          "name": "owner",
          "type": "address"
        }
      ],
      "name": "balanceOf",
      "outputs": [
        {
          "internalType": "uint256",
          "name": "",
          "type": "uint256"
        }
      ],
      "stateMutability": "view",
      "type": "function"
    },
    {
      "inputs": [
        {
          "internalType": "string",
          "name": "tokenURI",
          "type": "string"
        },
        {
          "internalType": "uint256",
          "name": "price",
          "type": "uint256"
        }
      ],
      "name": "createNFT",
      "outputs": [],
      "stateMutability": "payable",
      "type": "function"
    },
    {
      "inputs": [],
      "name": "feeAccount",
      "outputs": [
        {
          "internalType": "address payable",
          "name": "",
          "type": "address"
        }
      ],
      "stateMutability": "view",
      "type": "function"
    },
    {
      "inputs": [],
      "name": "feePercent",
      "outputs": [
        {
          "internalType": "uint256",
          "name": "",
          "type": "uint256"
        }
      ],
      "stateMutability": "view",
      "type": "function"
    },
    {
      "inputs": [],
      "name": "fetchItemsListed",
      "outputs": [
        {
          "components": [
            {
              "internalType": "uint256",
              "name": "tokenId",
              "type": "uint256"
            },
            {
              "internalType": "uint256",
              "name": "price",
              "type": "uint256"
            },
            {
              "internalType": "address payable",
              "name": "seller",
              "type": "address"
            },
            {
              "internalType": "address payable",
              "name": "owner",
              "type": "address"
            },
            {
              "internalType": "bool",
              "name": "sold",
              "type": "bool"
            }
          ],
          "internalType": "struct Marketplace.Item[]",
          "name": "",
          "type": "tuple[]"
        }
      ],
      "stateMutability": "view",
      "type": "function"
    },
    {
      "inputs": [],
      "name": "fetchMarketItems",
      "outputs": [
        {
          "components": [
            {
              "internalType": "uint256",
              "name": "tokenId",
              "type": "uint256"
            },
            {
              "internalType": "uint256",
              "name": "price",
              "type": "uint256"
            },
            {
              "internalType": "address payable",
              "name": "seller",
              "type": "address"
            },
            {
              "internalType": "address payable",
              "name": "owner",
              "type": "address"
            },
            {
              "internalType": "bool",
              "name": "sold",
              "type": "bool"
            }
          ],
          "internalType": "struct Marketplace.Item[]",
          "name": "",
          "type": "tuple[]"
        }
      ],
      "stateMutability": "view",
      "type": "function"
    },
    {
      "inputs": [],
      "name": "fetchMyNft",
      "outputs": [
        {
          "components": [
            {
              "internalType": "uint256",
              "name": "tokenId",
              "type": "uint256"
            },
            {
              "internalType": "uint256",
              "name": "price",
              "type": "uint256"
            },
            {
              "internalType": "address payable",
              "name": "seller",
              "type": "address"
            },
            {
              "internalType": "address payable",
              "name": "owner",
              "type": "address"
            },
            {
              "internalType": "bool",
              "name": "sold",
              "type": "bool"
            }
          ],
          "internalType": "struct Marketplace.Item[]",
          "name": "",
          "type": "tuple[]"
        }
      ],
      "stateMutability": "view",
      "type": "function"
    },
    {
      "inputs": [
        {
          "internalType": "uint256",
          "name": "tokenId",
          "type": "uint256"
        }
      ],
      "name": "getApproved",
      "outputs": [
        {
          "internalType": "address",
          "name": "",
          "type": "address"
        }
      ],
      "stateMutability": "view",
      "type": "function"
    },
    {
      "inputs": [
        {
          "internalType": "uint256",
          "name": "_itemId",
          "type": "uint256"
        }
      ],
      "name": "getTotalPrice",
      "outputs": [
        {
          "internalType": "uint256",
          "name": "",
          "type": "uint256"
        }
      ],
      "stateMutability": "view",
      "type": "function"
    },
    {
      "inputs": [
        {
          "internalType": "address",
          "name": "owner",
          "type": "address"
        },
        {
          "internalType": "address",
          "name": "operator",
          "type": "address"
        }
      ],
      "name": "isApprovedForAll",
      "outputs": [
        {
          "internalType": "bool",
          "name": "",
          "type": "bool"
        }
      ],
      "stateMutability": "view",
      "type": "function"
    },
    {
      "inputs": [],
      "name": "itemCount",
      "outputs": [
        {
          "internalType": "uint256",
          "name": "_value",
          "type": "uint256"
        }
      ],
      "stateMutability": "view",
      "type": "function"
    },
    {
      "inputs": [
        {
          "internalType": "uint256",
          "name": "",
          "type": "uint256"
        }
      ],
      "name": "items",
      "outputs": [
        {
          "internalType": "uint256",
          "name": "tokenId",
          "type": "uint256"
        },
        {
          "internalType": "uint256",
          "name": "price",
          "type": "uint256"
        },
        {
          "internalType": "address payable",
          "name": "seller",
          "type": "address"
        },
        {
          "internalType": "address payable",
          "name": "owner",
          "type": "address"
        },
        {
          "internalType": "bool",
          "name": "sold",
          "type": "bool"
        }
      ],
      "stateMutability": "view",
      "type": "function"
    },
    {
      "inputs": [],
      "name": "name",
      "outputs": [
        {
          "internalType": "string",
          "name": "",
          "type": "string"
        }
      ],
      "stateMutability": "view",
      "type": "function"
    },
    {
      "inputs": [
        {
          "internalType": "uint256",
          "name": "tokenId",
          "type": "uint256"
        }
      ],
      "name": "ownerOf",
      "outputs": [
        {
          "internalType": "address",
          "name": "",
          "type": "address"
        }
      ],
      "stateMutability": "view",
      "type": "function"
    },
    {
      "inputs": [
        {
          "internalType": "uint256",
          "name": "_itemId",
          "type": "uint256"
        }
      ],
      "name": "purchaseItem",
      "outputs": [],
      "stateMutability": "payable",
      "type": "function"
    },
    {
      "inputs": [
        {
          "internalType": "address",
          "name": "from",
          "type": "address"
        },
        {
          "internalType": "address",
          "name": "to",
          "type": "address"
        },
        {
          "internalType": "uint256",
          "name": "tokenId",
          "type": "uint256"
        }
      ],
      "name": "safeTransferFrom",
      "outputs": [],
      "stateMutability": "nonpayable",
      "type": "function"
    },
    {
      "inputs": [
        {
          "internalType": "address",
          "name": "from",
          "type": "address"
        },
        {
          "internalType": "address",
          "name": "to",
          "type": "address"
        },
        {
          "internalType": "uint256",
          "name": "tokenId",
          "type": "uint256"
        },
        {
          "internalType": "bytes",
          "name": "_data",
          "type": "bytes"
        }
      ],
      "name": "safeTransferFrom",
      "outputs": [],
      "stateMutability": "nonpayable",
      "type": "function"
    },
    {
      "inputs": [
        {
          "internalType": "address",
          "name": "operator",
          "type": "address"
        },
        {
          "internalType": "bool",
          "name": "approved",
          "type": "bool"
        }
      ],
      "name": "setApprovalForAll",
      "outputs": [],
      "stateMutability": "nonpayable",
      "type": "function"
    },
    {
      "inputs": [
        {
          "internalType": "bytes4",
          "name": "interfaceId",
          "type": "bytes4"
        }
      ],
      "name": "supportsInterface",
      "outputs": [
        {
          "internalType": "bool",
          "name": "",
          "type": "bool"
        }
      ],
      "stateMutability": "view",
      "type": "function"
    },
    {
      "inputs": [],
      "name": "symbol",
      "outputs": [
        {
          "internalType": "string",
          "name": "",
          "type": "string"
        }
      ],
      "stateMutability": "view",
      "type": "function"
    },
    {
      "inputs": [
        {
          "internalType": "uint256",
          "name": "tokenId",
          "type": "uint256"
        }
      ],
      "name": "tokenURI",
      "outputs": [
        {
          "internalType": "string",
          "name": "",
          "type": "string"
        }
      ],
      "stateMutability": "view",
      "type": "function"
    },
    {
      "inputs": [
        {
          "internalType": "address",
          "name": "from",
          "type": "address"
        },
        {
          "internalType": "address",
          "name": "to",
          "type": "address"
        },
        {
          "internalType": "uint256",
          "name": "tokenId",
          "type": "uint256"
        }
      ],
      "name": "transferFrom",
      "outputs": [],
      "stateMutability": "nonpayable",
      "type": "function"
    }
  ],
  "bytecode": "0x60c06040523480156200001157600080fd5b506040516200463b3803806200463b8339818101604052810190620000379190620001e4565b6040518060400160405280600c81526020017f5265616c4c696665204e465400000000000000000000000000000000000000008152506040518060400160405280600481526020017f5265616c000000000000000000000000000000000000000000000000000000008152508160009080519060200190620000bb9291906200011d565b508060019080519060200190620000d49291906200011d565b5050503373ffffffffffffffffffffffffffffffffffffffff1660808173ffffffffffffffffffffffffffffffffffffffff1660601b815250508060a081815250505062000299565b8280546200012b906200021a565b90600052602060002090601f0160209004810192826200014f57600085556200019b565b82601f106200016a57805160ff19168380011785556200019b565b828001600101855582156200019b579182015b828111156200019a5782518255916020019190600101906200017d565b5b509050620001aa9190620001ae565b5090565b5b80821115620001c9576000816000905550600101620001af565b5090565b600081519050620001de816200027f565b92915050565b600060208284031215620001f757600080fd5b60006200020784828501620001cd565b91505092915050565b6000819050919050565b600060028204905060018216806200023357607f821691505b602082108114156200024a576200024962000250565b5b50919050565b7f4e487b7100000000000000000000000000000000000000000000000000000000600052602260045260246000fd5b6200028a8162000210565b81146200029657600080fd5b50565b60805160601c60a05161436b620002d0600039600081816110e50152611726015260008181610ffd015261199d015261436b6000f3fe6080604052600436106101405760003560e01c80636bfb0d01116100b6578063b88d4fde1161006f578063b88d4fde14610451578063bfb231d21461047a578063c87b56dd146104bb578063ca7dd375146104f8578063d38ea5bf14610535578063e985e9c51461055157610140565b80636bfb0d011461033f57806370a082311461036a5780637fd6f15c146103a757806395d89b41146103d25780639f7699eb146103fd578063a22cb4651461042857610140565b806323b872dd1161010857806323b872dd1461023e578063268291551461026757806342842e0e1461028357806345f8fa80146102ac5780636352211e146102d757806365e17c9d1461031457610140565b806301ffc9a71461014557806306fdde0314610182578063081812fc146101ad578063095ea7b3146101ea5780630f08efe014610213575b600080fd5b34801561015157600080fd5b5061016c60048036038101906101679190612ed6565b61058e565b6040516101799190613536565b60405180910390f35b34801561018e57600080fd5b50610197610670565b6040516101a49190613551565b60405180910390f35b3480156101b957600080fd5b506101d460048036038101906101cf9190612f7c565b610702565b6040516101e19190613492565b60405180910390f35b3480156101f657600080fd5b50610211600480360381019061020c9190612e9a565b610787565b005b34801561021f57600080fd5b5061022861089f565b6040516102359190613514565b60405180910390f35b34801561024a57600080fd5b5061026560048036038101906102609190612d94565b610b54565b005b610281600480360381019061027c9190612f28565b610bb4565b005b34801561028f57600080fd5b506102aa60048036038101906102a59190612d94565b610bef565b005b3480156102b857600080fd5b506102c1610c0f565b6040516102ce9190613514565b60405180910390f35b3480156102e357600080fd5b506102fe60048036038101906102f99190612f7c565b610f49565b60405161030b9190613492565b60405180910390f35b34801561032057600080fd5b50610329610ffb565b60405161033691906134ad565b60405180910390f35b34801561034b57600080fd5b5061035461101f565b6040516103619190613813565b60405180910390f35b34801561037657600080fd5b50610391600480360381019061038c9190612d2f565b61102b565b60405161039e9190613813565b60405180910390f35b3480156103b357600080fd5b506103bc6110e3565b6040516103c99190613813565b60405180910390f35b3480156103de57600080fd5b506103e7611107565b6040516103f49190613551565b60405180910390f35b34801561040957600080fd5b50610412611199565b60405161041f9190613514565b60405180910390f35b34801561043457600080fd5b5061044f600480360381019061044a9190612e5e565b6114d3565b005b34801561045d57600080fd5b5061047860048036038101906104739190612de3565b6114e9565b005b34801561048657600080fd5b506104a1600480360381019061049c9190612f7c565b61154b565b6040516104b2959493929190613865565b60405180910390f35b3480156104c757600080fd5b506104e260048036038101906104dd9190612f7c565b6115ce565b6040516104ef9190613551565b60405180910390f35b34801561050457600080fd5b5061051f600480360381019061051a9190612f7c565b611720565b60405161052c9190613813565b60405180910390f35b61054f600480360381019061054a9190612f7c565b611783565b005b34801561055d57600080fd5b5061057860048036038101906105739190612d58565b611b32565b6040516105859190613536565b60405180910390f35b60007f80ac58cd000000000000000000000000000000000000000000000000000000007bffffffffffffffffffffffffffffffffffffffffffffffffffffffff1916827bffffffffffffffffffffffffffffffffffffffffffffffffffffffff1916148061065957507f5b5e139f000000000000000000000000000000000000000000000000000000007bffffffffffffffffffffffffffffffffffffffffffffffffffffffff1916827bffffffffffffffffffffffffffffffffffffffffffffffffffffffff1916145b80610669575061066882611bc6565b5b9050919050565b60606000805461067f90613b98565b80601f01602080910402602001604051908101604052809291908181526020018280546106ab90613b98565b80156106f85780601f106106cd576101008083540402835291602001916106f8565b820191906000526020600020905b8154815290600101906020018083116106db57829003601f168201915b5050505050905090565b600061070d82611c30565b61074c576040517f08c379a000000000000000000000000000000000000000000000000000000000815260040161074390613793565b60405180910390fd5b6004600083815260200190815260200160002060009054906101000a900473ffffffffffffffffffffffffffffffffffffffff169050919050565b600061079282610f49565b90508073ffffffffffffffffffffffffffffffffffffffff168373ffffffffffffffffffffffffffffffffffffffff161415610803576040517f08c379a00000000000000000000000000000000000000000000000000000000081526004016107fa906137d3565b60405180910390fd5b8073ffffffffffffffffffffffffffffffffffffffff16610822611c9c565b73ffffffffffffffffffffffffffffffffffffffff16148061085157506108508161084b611c9c565b611b32565b5b610890576040517f08c379a0000000000000000000000000000000000000000000000000000000008152600401610887906136b3565b60405180910390fd5b61089a8383611ca4565b505050565b606060006108ad6007611d5d565b905060006108bb6008611d5d565b6108c56007611d5d565b6108cf9190613a9c565b90506000808267ffffffffffffffff811115610914577f4e487b7100000000000000000000000000000000000000000000000000000000600052604160045260246000fd5b60405190808252806020026020018201604052801561094d57816020015b61093a612af6565b8152602001906001900390816109325790505b50905060005b84811015610b49573073ffffffffffffffffffffffffffffffffffffffff166009600060018461098391906139bb565b815260200190815260200160002060030160009054906101000a900473ffffffffffffffffffffffffffffffffffffffff1673ffffffffffffffffffffffffffffffffffffffff161415610b365760006001826109e091906139bb565b90506000600960008381526020019081526020016000209050806040518060a001604052908160008201548152602001600182015481526020016002820160009054906101000a900473ffffffffffffffffffffffffffffffffffffffff1673ffffffffffffffffffffffffffffffffffffffff1673ffffffffffffffffffffffffffffffffffffffff1681526020016003820160009054906101000a900473ffffffffffffffffffffffffffffffffffffffff1673ffffffffffffffffffffffffffffffffffffffff1673ffffffffffffffffffffffffffffffffffffffff1681526020016003820160149054906101000a900460ff161515151581525050848681518110610b19577f4e487b7100000000000000000000000000000000000000000000000000000000600052603260045260246000fd5b6020026020010181905250600185610b3191906139bb565b945050505b8080610b4190613bfb565b915050610953565b508094505050505090565b610b65610b5f611c9c565b82611d6b565b610ba4576040517f08c379a0000000000000000000000000000000000000000000000000000000008152600401610b9b906137f3565b60405180910390fd5b610baf838383611e49565b505050565b610bbe60076120b0565b6000610bca6007611d5d565b9050610bd633826120c6565b610be081846122a0565b610bea8183612314565b505050565b610c0a838383604051806020016040528060008152506114e9565b505050565b60606000610c1d6007611d5d565b905060008060005b83811015610cc6573373ffffffffffffffffffffffffffffffffffffffff1660096000600184610c5591906139bb565b815260200190815260200160002060020160009054906101000a900473ffffffffffffffffffffffffffffffffffffffff1673ffffffffffffffffffffffffffffffffffffffff161415610cb357600183610cb091906139bb565b92505b8080610cbe90613bfb565b915050610c25565b5060008267ffffffffffffffff811115610d09577f4e487b7100000000000000000000000000000000000000000000000000000000600052604160045260246000fd5b604051908082528060200260200182016040528015610d4257816020015b610d2f612af6565b815260200190600190039081610d275790505b50905060005b84811015610f3e573373ffffffffffffffffffffffffffffffffffffffff1660096000600184610d7891906139bb565b815260200190815260200160002060020160009054906101000a900473ffffffffffffffffffffffffffffffffffffffff1673ffffffffffffffffffffffffffffffffffffffff161415610f2b576000600182610dd591906139bb565b90506000600960008381526020019081526020016000209050806040518060a001604052908160008201548152602001600182015481526020016002820160009054906101000a900473ffffffffffffffffffffffffffffffffffffffff1673ffffffffffffffffffffffffffffffffffffffff1673ffffffffffffffffffffffffffffffffffffffff1681526020016003820160009054906101000a900473ffffffffffffffffffffffffffffffffffffffff1673ffffffffffffffffffffffffffffffffffffffff1673ffffffffffffffffffffffffffffffffffffffff1681526020016003820160149054906101000a900460ff161515151581525050848681518110610f0e577f4e487b7100000000000000000000000000000000000000000000000000000000600052603260045260246000fd5b6020026020010181905250600185610f2691906139bb565b945050505b8080610f3690613bfb565b915050610d48565b508094505050505090565b6000806002600084815260200190815260200160002060009054906101000a900473ffffffffffffffffffffffffffffffffffffffff169050600073ffffffffffffffffffffffffffffffffffffffff168173ffffffffffffffffffffffffffffffffffffffff161415610ff2576040517f08c379a0000000000000000000000000000000000000000000000000000000008152600401610fe9906136f3565b60405180910390fd5b80915050919050565b7f000000000000000000000000000000000000000000000000000000000000000081565b60078060000154905081565b60008073ffffffffffffffffffffffffffffffffffffffff168273ffffffffffffffffffffffffffffffffffffffff16141561109c576040517f08c379a0000000000000000000000000000000000000000000000000000000008152600401611093906136d3565b60405180910390fd5b600360008373ffffffffffffffffffffffffffffffffffffffff1673ffffffffffffffffffffffffffffffffffffffff168152602001908152602001600020549050919050565b7f000000000000000000000000000000000000000000000000000000000000000081565b60606001805461111690613b98565b80601f016020809104026020016040519081016040528092919081815260200182805461114290613b98565b801561118f5780601f106111645761010080835404028352916020019161118f565b820191906000526020600020905b81548152906001019060200180831161117257829003601f168201915b5050505050905090565b606060006111a76007611d5d565b905060008060005b83811015611250573373ffffffffffffffffffffffffffffffffffffffff16600960006001846111df91906139bb565b815260200190815260200160002060030160009054906101000a900473ffffffffffffffffffffffffffffffffffffffff1673ffffffffffffffffffffffffffffffffffffffff16141561123d5760018361123a91906139bb565b92505b808061124890613bfb565b9150506111af565b5060008267ffffffffffffffff811115611293577f4e487b7100000000000000000000000000000000000000000000000000000000600052604160045260246000fd5b6040519080825280602002602001820160405280156112cc57816020015b6112b9612af6565b8152602001906001900390816112b15790505b50905060005b848110156114c8573373ffffffffffffffffffffffffffffffffffffffff166009600060018461130291906139bb565b815260200190815260200160002060030160009054906101000a900473ffffffffffffffffffffffffffffffffffffffff1673ffffffffffffffffffffffffffffffffffffffff1614156114b557600060018261135f91906139bb565b90506000600960008381526020019081526020016000209050806040518060a001604052908160008201548152602001600182015481526020016002820160009054906101000a900473ffffffffffffffffffffffffffffffffffffffff1673ffffffffffffffffffffffffffffffffffffffff1673ffffffffffffffffffffffffffffffffffffffff1681526020016003820160009054906101000a900473ffffffffffffffffffffffffffffffffffffffff1673ffffffffffffffffffffffffffffffffffffffff1673ffffffffffffffffffffffffffffffffffffffff1681526020016003820160149054906101000a900460ff161515151581525050848681518110611498577f4e487b7100000000000000000000000000000000000000000000000000000000600052603260045260246000fd5b60200260200101819052506001856114b091906139bb565b945050505b80806114c090613bfb565b9150506112d2565b508094505050505090565b6114e56114de611c9c565b83836124fe565b5050565b6114fa6114f4611c9c565b83611d6b565b611539576040517f08c379a0000000000000000000000000000000000000000000000000000000008152600401611530906137f3565b60405180910390fd5b6115458484848461266b565b50505050565b60096020528060005260406000206000915090508060000154908060010154908060020160009054906101000a900473ffffffffffffffffffffffffffffffffffffffff16908060030160009054906101000a900473ffffffffffffffffffffffffffffffffffffffff16908060030160149054906101000a900460ff16905085565b60606115d982611c30565b611618576040517f08c379a000000000000000000000000000000000000000000000000000000000815260040161160f90613773565b60405180910390fd5b600060066000848152602001908152602001600020805461163890613b98565b80601f016020809104026020016040519081016040528092919081815260200182805461166490613b98565b80156116b15780601f10611686576101008083540402835291602001916116b1565b820191906000526020600020905b81548152906001019060200180831161169457829003601f168201915b5050505050905060006116c26126c7565b90506000815114156116d857819250505061171b565b60008251111561170d5780826040516020016116f592919061346e565b6040516020818303038152906040529250505061171b565b611716846126de565b925050505b919050565b600060647f0000000000000000000000000000000000000000000000000000000000000000606461175191906139bb565b60096000858152602001908152602001600020600101546117729190613a42565b61177c9190613a11565b9050919050565b600061178e82611720565b9050600061179c6007611d5d565b905060006009600085815260200190815260200160002090506000841180156117c55750818411155b611804576040517f08c379a00000000000000000000000000000000000000000000000000000000081526004016117fb90613693565b60405180910390fd5b82341015611847576040517f08c379a000000000000000000000000000000000000000000000000000000000815260040161183e90613613565b60405180910390fd5b8060030160149054906101000a900460ff1615611899576040517f08c379a000000000000000000000000000000000000000000000000000000000815260040161189090613573565b60405180910390fd5b8060020160009054906101000a900473ffffffffffffffffffffffffffffffffffffffff1673ffffffffffffffffffffffffffffffffffffffff163373ffffffffffffffffffffffffffffffffffffffff16141561192c576040517f08c379a000000000000000000000000000000000000000000000000000000000815260040161192390613733565b60405180910390fd5b8060020160009054906101000a900473ffffffffffffffffffffffffffffffffffffffff1673ffffffffffffffffffffffffffffffffffffffff166108fc82600101549081150290604051600060405180830381858888f1935050505015801561199a573d6000803e3d6000fd5b507f000000000000000000000000000000000000000000000000000000000000000073ffffffffffffffffffffffffffffffffffffffff166108fc8260010154856119e59190613a9c565b9081150290604051600060405180830381858888f19350505050158015611a10573d6000803e3d6000fd5b5060018160030160146101000a81548160ff021916908315150217905550338160030160006101000a81548173ffffffffffffffffffffffffffffffffffffffff021916908373ffffffffffffffffffffffffffffffffffffffff160217905550611a7b60086120b0565b611a8a30338360000154611e49565b3373ffffffffffffffffffffffffffffffffffffffff168160020160009054906101000a900473ffffffffffffffffffffffffffffffffffffffff1673ffffffffffffffffffffffffffffffffffffffff167fbd984748b13fbe6267191ef05cc2ac413f7983538f15deef0fee37c95fcde7e1868460030160149054906101000a900460ff168560010154604051611b249392919061382e565b60405180910390a350505050565b6000600560008473ffffffffffffffffffffffffffffffffffffffff1673ffffffffffffffffffffffffffffffffffffffff16815260200190815260200160002060008373ffffffffffffffffffffffffffffffffffffffff1673ffffffffffffffffffffffffffffffffffffffff16815260200190815260200160002060009054906101000a900460ff16905092915050565b60007f01ffc9a7000000000000000000000000000000000000000000000000000000007bffffffffffffffffffffffffffffffffffffffffffffffffffffffff1916827bffffffffffffffffffffffffffffffffffffffffffffffffffffffff1916149050919050565b60008073ffffffffffffffffffffffffffffffffffffffff166002600084815260200190815260200160002060009054906101000a900473ffffffffffffffffffffffffffffffffffffffff1673ffffffffffffffffffffffffffffffffffffffff1614159050919050565b600033905090565b816004600083815260200190815260200160002060006101000a81548173ffffffffffffffffffffffffffffffffffffffff021916908373ffffffffffffffffffffffffffffffffffffffff160217905550808273ffffffffffffffffffffffffffffffffffffffff16611d1783610f49565b73ffffffffffffffffffffffffffffffffffffffff167f8c5be1e5ebec7d5bd14f71427d1e84f3dd0314c0f7b2291e5b200ac8c7c3b92560405160405180910390a45050565b600081600001549050919050565b6000611d7682611c30565b611db5576040517f08c379a0000000000000000000000000000000000000000000000000000000008152600401611dac90613673565b60405180910390fd5b6000611dc083610f49565b90508073ffffffffffffffffffffffffffffffffffffffff168473ffffffffffffffffffffffffffffffffffffffff161480611e025750611e018185611b32565b5b80611e4057508373ffffffffffffffffffffffffffffffffffffffff16611e2884610702565b73ffffffffffffffffffffffffffffffffffffffff16145b91505092915050565b8273ffffffffffffffffffffffffffffffffffffffff16611e6982610f49565b73ffffffffffffffffffffffffffffffffffffffff1614611ebf576040517f08c379a0000000000000000000000000000000000000000000000000000000008152600401611eb6906135d3565b60405180910390fd5b600073ffffffffffffffffffffffffffffffffffffffff168273ffffffffffffffffffffffffffffffffffffffff161415611f2f576040517f08c379a0000000000000000000000000000000000000000000000000000000008152600401611f2690613633565b60405180910390fd5b611f3a838383612785565b611f45600082611ca4565b6001600360008573ffffffffffffffffffffffffffffffffffffffff1673ffffffffffffffffffffffffffffffffffffffff1681526020019081526020016000206000828254611f959190613a9c565b925050819055506001600360008473ffffffffffffffffffffffffffffffffffffffff1673ffffffffffffffffffffffffffffffffffffffff1681526020019081526020016000206000828254611fec91906139bb565b92505081905550816002600083815260200190815260200160002060006101000a81548173ffffffffffffffffffffffffffffffffffffffff021916908373ffffffffffffffffffffffffffffffffffffffff160217905550808273ffffffffffffffffffffffffffffffffffffffff168473ffffffffffffffffffffffffffffffffffffffff167fddf252ad1be2c89b69c2b068fc378daa952ba7f163c4a11628f55a4df523b3ef60405160405180910390a46120ab83838361278a565b505050565b6001816000016000828254019250508190555050565b600073ffffffffffffffffffffffffffffffffffffffff168273ffffffffffffffffffffffffffffffffffffffff161415612136576040517f08c379a000000000000000000000000000000000000000000000000000000000815260040161212d90613753565b60405180910390fd5b61213f81611c30565b1561217f576040517f08c379a0000000000000000000000000000000000000000000000000000000008152600401612176906135f3565b60405180910390fd5b61218b60008383612785565b6001600360008473ffffffffffffffffffffffffffffffffffffffff1673ffffffffffffffffffffffffffffffffffffffff16815260200190815260200160002060008282546121db91906139bb565b92505081905550816002600083815260200190815260200160002060006101000a81548173ffffffffffffffffffffffffffffffffffffffff021916908373ffffffffffffffffffffffffffffffffffffffff160217905550808273ffffffffffffffffffffffffffffffffffffffff16600073ffffffffffffffffffffffffffffffffffffffff167fddf252ad1be2c89b69c2b068fc378daa952ba7f163c4a11628f55a4df523b3ef60405160405180910390a461229c6000838361278a565b5050565b6122a982611c30565b6122e8576040517f08c379a00000000000000000000000000000000000000000000000000000000081526004016122df90613713565b60405180910390fd5b8060066000848152602001908152602001600020908051906020019061230f929190612b53565b505050565b60008111612357576040517f08c379a000000000000000000000000000000000000000000000000000000000815260040161234e90613593565b60405180910390fd5b612362333084611e49565b6040518060a001604052808381526020018281526020013373ffffffffffffffffffffffffffffffffffffffff1681526020013073ffffffffffffffffffffffffffffffffffffffff1681526020016000151581525060096000848152602001908152602001600020600082015181600001556020820151816001015560408201518160020160006101000a81548173ffffffffffffffffffffffffffffffffffffffff021916908373ffffffffffffffffffffffffffffffffffffffff16021790555060608201518160030160006101000a81548173ffffffffffffffffffffffffffffffffffffffff021916908373ffffffffffffffffffffffffffffffffffffffff16021790555060808201518160030160146101000a81548160ff0219169083151502179055509050503073ffffffffffffffffffffffffffffffffffffffff163373ffffffffffffffffffffffffffffffffffffffff167f9bd30698974acb5da151ec7f0787cb683b6d5c53bd7b092f2ff90ef260ed9de6846000856040516124f29392919061382e565b60405180910390a35050565b8173ffffffffffffffffffffffffffffffffffffffff168373ffffffffffffffffffffffffffffffffffffffff16141561256d576040517f08c379a000000000000000000000000000000000000000000000000000000000815260040161256490613653565b60405180910390fd5b80600560008573ffffffffffffffffffffffffffffffffffffffff1673ffffffffffffffffffffffffffffffffffffffff16815260200190815260200160002060008473ffffffffffffffffffffffffffffffffffffffff1673ffffffffffffffffffffffffffffffffffffffff16815260200190815260200160002060006101000a81548160ff0219169083151502179055508173ffffffffffffffffffffffffffffffffffffffff168373ffffffffffffffffffffffffffffffffffffffff167f17307eab39ab6107e8899845ad3d59bd9653f200f220920489ca2b5937696c318360405161265e9190613536565b60405180910390a3505050565b612676848484611e49565b6126828484848461278f565b6126c1576040517f08c379a00000000000000000000000000000000000000000000000000000000081526004016126b8906135b3565b60405180910390fd5b50505050565b606060405180602001604052806000815250905090565b60606126e982611c30565b612728576040517f08c379a000000000000000000000000000000000000000000000000000000000815260040161271f906137b3565b60405180910390fd5b60006127326126c7565b90506000815111612752576040518060200160405280600081525061277d565b8061275c84612926565b60405160200161276d92919061346e565b6040516020818303038152906040525b915050919050565b505050565b505050565b60006127b08473ffffffffffffffffffffffffffffffffffffffff16612ad3565b15612919578373ffffffffffffffffffffffffffffffffffffffff1663150b7a026127d9611c9c565b8786866040518563ffffffff1660e01b81526004016127fb94939291906134c8565b602060405180830381600087803b15801561281557600080fd5b505af192505050801561284657506040513d601f19601f820116820180604052508101906128439190612eff565b60015b6128c9573d8060008114612876576040519150601f19603f3d011682016040523d82523d6000602084013e61287b565b606091505b506000815114156128c1576040517f08c379a00000000000000000000000000000000000000000000000000000000081526004016128b8906135b3565b60405180910390fd5b805181602001fd5b63150b7a0260e01b7bffffffffffffffffffffffffffffffffffffffffffffffffffffffff1916817bffffffffffffffffffffffffffffffffffffffffffffffffffffffff19161491505061291e565b600190505b949350505050565b6060600082141561296e576040518060400160405280600181526020017f30000000000000000000000000000000000000000000000000000000000000008152509050612ace565b600082905060005b600082146129a057808061298990613bfb565b915050600a826129999190613a11565b9150612976565b60008167ffffffffffffffff8111156129e2577f4e487b7100000000000000000000000000000000000000000000000000000000600052604160045260246000fd5b6040519080825280601f01601f191660200182016040528015612a145781602001600182028036833780820191505090505b5090505b60008514612ac757600182612a2d9190613a9c565b9150600a85612a3c9190613c44565b6030612a4891906139bb565b60f81b818381518110612a84577f4e487b7100000000000000000000000000000000000000000000000000000000600052603260045260246000fd5b60200101907effffffffffffffffffffffffffffffffffffffffffffffffffffffffffffff1916908160001a905350600a85612ac09190613a11565b9450612a18565b8093505050505b919050565b6000808273ffffffffffffffffffffffffffffffffffffffff163b119050919050565b6040518060a001604052806000815260200160008152602001600073ffffffffffffffffffffffffffffffffffffffff168152602001600073ffffffffffffffffffffffffffffffffffffffff1681526020016000151581525090565b828054612b5f90613b98565b90600052602060002090601f016020900481019282612b815760008555612bc8565b82601f10612b9a57805160ff1916838001178555612bc8565b82800160010185558215612bc8579182015b82811115612bc7578251825591602001919060010190612bac565b5b509050612bd59190612bd9565b5090565b5b80821115612bf2576000816000905550600101612bda565b5090565b6000612c09612c04846138dd565b6138b8565b905082815260208101848484011115612c2157600080fd5b612c2c848285613b56565b509392505050565b6000612c47612c428461390e565b6138b8565b905082815260208101848484011115612c5f57600080fd5b612c6a848285613b56565b509392505050565b600081359050612c81816142d9565b92915050565b600081359050612c96816142f0565b92915050565b600081359050612cab81614307565b92915050565b600081519050612cc081614307565b92915050565b600082601f830112612cd757600080fd5b8135612ce7848260208601612bf6565b91505092915050565b600082601f830112612d0157600080fd5b8135612d11848260208601612c34565b91505092915050565b600081359050612d298161431e565b92915050565b600060208284031215612d4157600080fd5b6000612d4f84828501612c72565b91505092915050565b60008060408385031215612d6b57600080fd5b6000612d7985828601612c72565b9250506020612d8a85828601612c72565b9150509250929050565b600080600060608486031215612da957600080fd5b6000612db786828701612c72565b9350506020612dc886828701612c72565b9250506040612dd986828701612d1a565b9150509250925092565b60008060008060808587031215612df957600080fd5b6000612e0787828801612c72565b9450506020612e1887828801612c72565b9350506040612e2987828801612d1a565b925050606085013567ffffffffffffffff811115612e4657600080fd5b612e5287828801612cc6565b91505092959194509250565b60008060408385031215612e7157600080fd5b6000612e7f85828601612c72565b9250506020612e9085828601612c87565b9150509250929050565b60008060408385031215612ead57600080fd5b6000612ebb85828601612c72565b9250506020612ecc85828601612d1a565b9150509250929050565b600060208284031215612ee857600080fd5b6000612ef684828501612c9c565b91505092915050565b600060208284031215612f1157600080fd5b6000612f1f84828501612cb1565b91505092915050565b60008060408385031215612f3b57600080fd5b600083013567ffffffffffffffff811115612f5557600080fd5b612f6185828601612cf0565b9250506020612f7285828601612d1a565b9150509250929050565b600060208284031215612f8e57600080fd5b6000612f9c84828501612d1a565b91505092915050565b6000612fb183836133e8565b60a08301905092915050565b612fc681613ae2565b82525050565b612fd581613ae2565b82525050565b612fe481613ad0565b82525050565b6000612ff58261394f565b612fff818561397d565b935061300a8361393f565b8060005b8381101561303b5781516130228882612fa5565b975061302d83613970565b92505060018101905061300e565b5085935050505092915050565b61305181613af4565b82525050565b61306081613af4565b82525050565b60006130718261395a565b61307b818561398e565b935061308b818560208601613b65565b61309481613d31565b840191505092915050565b60006130aa82613965565b6130b4818561399f565b93506130c4818560208601613b65565b6130cd81613d31565b840191505092915050565b60006130e382613965565b6130ed81856139b0565b93506130fd818560208601613b65565b80840191505092915050565b600061311660118361399f565b915061312182613d42565b602082019050919050565b6000613139601f8361399f565b915061314482613d6b565b602082019050919050565b600061315c60328361399f565b915061316782613d94565b604082019050919050565b600061317f60258361399f565b915061318a82613de3565b604082019050919050565b60006131a2601c8361399f565b91506131ad82613e32565b602082019050919050565b60006131c560338361399f565b91506131d082613e5b565b604082019050919050565b60006131e860248361399f565b91506131f382613eaa565b604082019050919050565b600061320b60198361399f565b915061321682613ef9565b602082019050919050565b600061322e602c8361399f565b915061323982613f22565b604082019050919050565b600061325160128361399f565b915061325c82613f71565b602082019050919050565b600061327460388361399f565b915061327f82613f9a565b604082019050919050565b6000613297602a8361399f565b91506132a282613fe9565b604082019050919050565b60006132ba60298361399f565b91506132c582614038565b604082019050919050565b60006132dd602e8361399f565b91506132e882614087565b604082019050919050565b600061330060228361399f565b915061330b826140d6565b604082019050919050565b600061332360208361399f565b915061332e82614125565b602082019050919050565b600061334660318361399f565b91506133518261414e565b604082019050919050565b6000613369602c8361399f565b91506133748261419d565b604082019050919050565b600061338c602f8361399f565b9150613397826141ec565b604082019050919050565b60006133af60218361399f565b91506133ba8261423b565b604082019050919050565b60006133d260318361399f565b91506133dd8261428a565b604082019050919050565b60a0820160008201516133fe6000850182613450565b5060208201516134116020850182613450565b5060408201516134246040850182612fbd565b5060608201516134376060850182612fbd565b50608082015161344a6080850182613048565b50505050565b61345981613b4c565b82525050565b61346881613b4c565b82525050565b600061347a82856130d8565b915061348682846130d8565b91508190509392505050565b60006020820190506134a76000830184612fdb565b92915050565b60006020820190506134c26000830184612fcc565b92915050565b60006080820190506134dd6000830187612fdb565b6134ea6020830186612fdb565b6134f7604083018561345f565b81810360608301526135098184613066565b905095945050505050565b6000602082019050818103600083015261352e8184612fea565b905092915050565b600060208201905061354b6000830184613057565b92915050565b6000602082019050818103600083015261356b818461309f565b905092915050565b6000602082019050818103600083015261358c81613109565b9050919050565b600060208201905081810360008301526135ac8161312c565b9050919050565b600060208201905081810360008301526135cc8161314f565b9050919050565b600060208201905081810360008301526135ec81613172565b9050919050565b6000602082019050818103600083015261360c81613195565b9050919050565b6000602082019050818103600083015261362c816131b8565b9050919050565b6000602082019050818103600083015261364c816131db565b9050919050565b6000602082019050818103600083015261366c816131fe565b9050919050565b6000602082019050818103600083015261368c81613221565b9050919050565b600060208201905081810360008301526136ac81613244565b9050919050565b600060208201905081810360008301526136cc81613267565b9050919050565b600060208201905081810360008301526136ec8161328a565b9050919050565b6000602082019050818103600083015261370c816132ad565b9050919050565b6000602082019050818103600083015261372c816132d0565b9050919050565b6000602082019050818103600083015261374c816132f3565b9050919050565b6000602082019050818103600083015261376c81613316565b9050919050565b6000602082019050818103600083015261378c81613339565b9050919050565b600060208201905081810360008301526137ac8161335c565b9050919050565b600060208201905081810360008301526137cc8161337f565b9050919050565b600060208201905081810360008301526137ec816133a2565b9050919050565b6000602082019050818103600083015261380c816133c5565b9050919050565b6000602082019050613828600083018461345f565b92915050565b6000606082019050613843600083018661345f565b6138506020830185613057565b61385d604083018461345f565b949350505050565b600060a08201905061387a600083018861345f565b613887602083018761345f565b6138946040830186612fcc565b6138a16060830185612fcc565b6138ae6080830184613057565b9695505050505050565b60006138c26138d3565b90506138ce8282613bca565b919050565b6000604051905090565b600067ffffffffffffffff8211156138f8576138f7613d02565b5b61390182613d31565b9050602081019050919050565b600067ffffffffffffffff82111561392957613928613d02565b5b61393282613d31565b9050602081019050919050565b6000819050602082019050919050565b600081519050919050565b600081519050919050565b600081519050919050565b6000602082019050919050565b600082825260208201905092915050565b600082825260208201905092915050565b600082825260208201905092915050565b600081905092915050565b60006139c682613b4c565b91506139d183613b4c565b9250827fffffffffffffffffffffffffffffffffffffffffffffffffffffffffffffffff03821115613a0657613a05613c75565b5b828201905092915050565b6000613a1c82613b4c565b9150613a2783613b4c565b925082613a3757613a36613ca4565b5b828204905092915050565b6000613a4d82613b4c565b9150613a5883613b4c565b9250817fffffffffffffffffffffffffffffffffffffffffffffffffffffffffffffffff0483118215151615613a9157613a90613c75565b5b828202905092915050565b6000613aa782613b4c565b9150613ab283613b4c565b925082821015613ac557613ac4613c75565b5b828203905092915050565b6000613adb82613b2c565b9050919050565b6000613aed82613b2c565b9050919050565b60008115159050919050565b60007fffffffff0000000000000000000000000000000000000000000000000000000082169050919050565b600073ffffffffffffffffffffffffffffffffffffffff82169050919050565b6000819050919050565b82818337600083830152505050565b60005b83811015613b83578082015181840152602081019050613b68565b83811115613b92576000848401525b50505050565b60006002820490506001821680613bb057607f821691505b60208210811415613bc457613bc3613cd3565b5b50919050565b613bd382613d31565b810181811067ffffffffffffffff82111715613bf257613bf1613d02565b5b80604052505050565b6000613c0682613b4c565b91507fffffffffffffffffffffffffffffffffffffffffffffffffffffffffffffffff821415613c3957613c38613c75565b5b600182019050919050565b6000613c4f82613b4c565b9150613c5a83613b4c565b925082613c6a57613c69613ca4565b5b828206905092915050565b7f4e487b7100000000000000000000000000000000000000000000000000000000600052601160045260246000fd5b7f4e487b7100000000000000000000000000000000000000000000000000000000600052601260045260246000fd5b7f4e487b7100000000000000000000000000000000000000000000000000000000600052602260045260246000fd5b7f4e487b7100000000000000000000000000000000000000000000000000000000600052604160045260246000fd5b6000601f19601f8301169050919050565b7f6974656d20616c726561647920736f6c64000000000000000000000000000000600082015250565b7f5072696365206d7573742062652067726561746572207468616e207a65726f00600082015250565b7f4552433732313a207472616e7366657220746f206e6f6e20455243373231526560008201527f63656976657220696d706c656d656e7465720000000000000000000000000000602082015250565b7f4552433732313a207472616e736665722066726f6d20696e636f72726563742060008201527f6f776e6572000000000000000000000000000000000000000000000000000000602082015250565b7f4552433732313a20746f6b656e20616c7265616479206d696e74656400000000600082015250565b7f6e6f7420656e6f75676820657468657220746f20636f766572206974656d207060008201527f7269636520616e64206d61726b65742066656500000000000000000000000000602082015250565b7f4552433732313a207472616e7366657220746f20746865207a65726f2061646460008201527f7265737300000000000000000000000000000000000000000000000000000000602082015250565b7f4552433732313a20617070726f766520746f2063616c6c657200000000000000600082015250565b7f4552433732313a206f70657261746f7220717565727920666f72206e6f6e657860008201527f697374656e7420746f6b656e0000000000000000000000000000000000000000602082015250565b7f6974656d20646f65736e27742065786973740000000000000000000000000000600082015250565b7f4552433732313a20617070726f76652063616c6c6572206973206e6f74206f7760008201527f6e6572206e6f7220617070726f76656420666f7220616c6c0000000000000000602082015250565b7f4552433732313a2062616c616e636520717565727920666f7220746865207a6560008201527f726f206164647265737300000000000000000000000000000000000000000000602082015250565b7f4552433732313a206f776e657220717565727920666f72206e6f6e657869737460008201527f656e7420746f6b656e0000000000000000000000000000000000000000000000602082015250565b7f45524337323155524953746f726167653a2055524920736574206f66206e6f6e60008201527f6578697374656e7420746f6b656e000000000000000000000000000000000000602082015250565b7f73656c6c65722073686f756c64206e6f742062652073616d652061732062757960008201527f6572000000000000000000000000000000000000000000000000000000000000602082015250565b7f4552433732313a206d696e7420746f20746865207a65726f2061646472657373600082015250565b7f45524337323155524953746f726167653a2055524920717565727920666f722060008201527f6e6f6e6578697374656e7420746f6b656e000000000000000000000000000000602082015250565b7f4552433732313a20617070726f76656420717565727920666f72206e6f6e657860008201527f697374656e7420746f6b656e0000000000000000000000000000000000000000602082015250565b7f4552433732314d657461646174613a2055524920717565727920666f72206e6f60008201527f6e6578697374656e7420746f6b656e0000000000000000000000000000000000602082015250565b7f4552433732313a20617070726f76616c20746f2063757272656e74206f776e6560008201527f7200000000000000000000000000000000000000000000000000000000000000602082015250565b7f4552433732313a207472616e736665722063616c6c6572206973206e6f74206f60008201527f776e6572206e6f7220617070726f766564000000000000000000000000000000602082015250565b6142e281613ad0565b81146142ed57600080fd5b50565b6142f981613af4565b811461430457600080fd5b50565b61431081613b00565b811461431b57600080fd5b50565b61432781613b4c565b811461433257600080fd5b5056fea26469706673582212207530a3c7ed57d3c6b2030dd04c1904a82dfbcfe018d75112004c4f7e11f4129f64736f6c63430008040033",
  "linkReferences": {},
  "deployedLinkReferences": {}
}